{
  "contractName": "CryptoDoggies",
  "abi": [
    {
      "constant": false,
      "inputs": [
        {
          "name": "_to",
          "type": "address"
        },
        {
          "name": "_tokenId",
          "type": "uint256"
        }
      ],
      "name": "approve",
      "outputs": [],
      "payable": false,
      "stateMutability": "nonpayable",
      "type": "function"
    },
    {
      "constant": true,
      "inputs": [],
      "name": "ceoAddress",
      "outputs": [
        {
          "name": "",
          "type": "address"
        }
      ],
      "payable": false,
      "stateMutability": "view",
      "type": "function"
    },
    {
      "constant": false,
      "inputs": [
        {
          "name": "_to",
          "type": "address"
        },
        {
          "name": "_amount",
          "type": "uint256"
        }
      ],
      "name": "withdrawBalance",
      "outputs": [],
      "payable": false,
      "stateMutability": "nonpayable",
      "type": "function"
    },
    {
      "constant": true,
      "inputs": [],
      "name": "implementsERC721",
      "outputs": [
        {
          "name": "",
          "type": "bool"
        }
      ],
      "payable": false,
      "stateMutability": "view",
      "type": "function"
    },
    {
      "constant": true,
      "inputs": [],
      "name": "totalSupply",
      "outputs": [
        {
          "name": "_totalSupply",
          "type": "uint256"
        }
      ],
      "payable": false,
      "stateMutability": "view",
      "type": "function"
    },
    {
      "constant": false,
      "inputs": [
        {
          "name": "_from",
          "type": "address"
        },
        {
          "name": "_to",
          "type": "address"
        },
        {
          "name": "_tokenId",
          "type": "uint256"
        }
      ],
      "name": "transferFrom",
      "outputs": [],
      "payable": false,
      "stateMutability": "nonpayable",
      "type": "function"
    },
    {
      "constant": false,
      "inputs": [
        {
          "name": "_newCEO",
          "type": "address"
        }
      ],
      "name": "setCEO",
      "outputs": [],
      "payable": false,
      "stateMutability": "nonpayable",
      "type": "function"
    },
    {
      "constant": true,
      "inputs": [],
      "name": "getAllTokens",
      "outputs": [
        {
          "name": "",
          "type": "uint256[]"
        },
        {
          "name": "",
          "type": "uint256[]"
        },
        {
          "name": "",
          "type": "address[]"
        }
      ],
      "payable": false,
      "stateMutability": "view",
      "type": "function"
    },
    {
      "constant": false,
      "inputs": [
        {
          "name": "_newCOO",
          "type": "address"
        }
      ],
      "name": "setCOO",
      "outputs": [],
      "payable": false,
      "stateMutability": "nonpayable",
      "type": "function"
    },
    {
      "constant": false,
      "inputs": [],
      "name": "unpause",
      "outputs": [],
      "payable": false,
      "stateMutability": "nonpayable",
      "type": "function"
    },
    {
      "constant": false,
      "inputs": [
        {
          "name": "_name",
          "type": "string"
        }
      ],
      "name": "createToken",
      "outputs": [],
      "payable": false,
      "stateMutability": "nonpayable",
      "type": "function"
    },
    {
      "constant": true,
      "inputs": [
        {
          "name": "_owner",
          "type": "address"
        }
      ],
      "name": "tokensOf",
      "outputs": [
        {
          "name": "",
          "type": "uint256[]"
        }
      ],
      "payable": false,
      "stateMutability": "view",
      "type": "function"
    },
    {
      "constant": true,
      "inputs": [
        {
          "name": "_tokenId",
          "type": "uint256"
        }
      ],
      "name": "nextPriceOf",
      "outputs": [
        {
          "name": "_nextPrice",
          "type": "uint256"
        }
      ],
      "payable": false,
      "stateMutability": "view",
      "type": "function"
    },
    {
      "constant": true,
      "inputs": [],
      "name": "paused",
      "outputs": [
        {
          "name": "",
          "type": "bool"
        }
      ],
      "payable": false,
      "stateMutability": "view",
      "type": "function"
    },
    {
      "constant": true,
      "inputs": [
        {
          "name": "_tokenId",
          "type": "uint256"
        }
      ],
      "name": "ownerOf",
      "outputs": [
        {
          "name": "_owner",
          "type": "address"
        }
      ],
      "payable": false,
      "stateMutability": "view",
      "type": "function"
    },
    {
      "constant": true,
      "inputs": [
        {
          "name": "_owner",
          "type": "address"
        }
      ],
      "name": "balanceOf",
      "outputs": [
        {
          "name": "_balance",
          "type": "uint256"
        }
      ],
      "payable": false,
      "stateMutability": "view",
      "type": "function"
    },
    {
      "constant": false,
      "inputs": [],
      "name": "enableERC721",
      "outputs": [],
      "payable": false,
      "stateMutability": "nonpayable",
      "type": "function"
    },
    {
      "constant": false,
      "inputs": [
        {
          "name": "_name",
          "type": "string"
        },
        {
          "name": "_owner",
          "type": "address"
        },
        {
          "name": "_price",
          "type": "uint256"
        }
      ],
      "name": "createToken",
      "outputs": [],
      "payable": false,
      "stateMutability": "nonpayable",
      "type": "function"
    },
    {
      "constant": false,
      "inputs": [],
      "name": "pause",
      "outputs": [],
      "payable": false,
      "stateMutability": "nonpayable",
      "type": "function"
    },
    {
      "constant": false,
      "inputs": [
        {
          "name": "_to",
          "type": "address"
        },
        {
          "name": "_tokenId",
          "type": "uint256"
        }
      ],
      "name": "transfer",
      "outputs": [],
      "payable": false,
      "stateMutability": "nonpayable",
      "type": "function"
    },
    {
      "constant": true,
      "inputs": [],
      "name": "cooAddress",
      "outputs": [
        {
          "name": "",
          "type": "address"
        }
      ],
      "payable": false,
      "stateMutability": "view",
      "type": "function"
    },
    {
      "constant": false,
      "inputs": [
        {
          "name": "_tokenId",
          "type": "uint256"
        }
      ],
      "name": "takeOwnership",
      "outputs": [],
      "payable": false,
      "stateMutability": "nonpayable",
      "type": "function"
    },
    {
      "constant": true,
      "inputs": [
        {
          "name": "_tokenId",
          "type": "uint256"
        }
      ],
      "name": "priceOf",
      "outputs": [
        {
          "name": "_price",
          "type": "uint256"
        }
      ],
      "payable": false,
      "stateMutability": "view",
      "type": "function"
    },
    {
      "constant": true,
      "inputs": [
        {
          "name": "_tokenId",
          "type": "uint256"
        }
      ],
      "name": "getToken",
      "outputs": [
        {
          "name": "_tokenName",
          "type": "string"
        },
        {
          "name": "_dna",
          "type": "bytes5"
        },
        {
          "name": "_price",
          "type": "uint256"
        },
        {
          "name": "_nextPrice",
          "type": "uint256"
        },
        {
          "name": "_owner",
          "type": "address"
        }
      ],
      "payable": false,
      "stateMutability": "view",
      "type": "function"
    },
    {
      "constant": false,
      "inputs": [
        {
          "name": "_tokenId",
          "type": "uint256"
        }
      ],
      "name": "purchase",
      "outputs": [],
      "payable": true,
      "stateMutability": "payable",
      "type": "function"
    },
    {
      "anonymous": false,
      "inputs": [
        {
          "indexed": false,
          "name": "tokenId",
          "type": "uint256"
        },
        {
          "indexed": false,
          "name": "name",
          "type": "string"
        },
        {
          "indexed": false,
          "name": "dna",
          "type": "bytes5"
        },
        {
          "indexed": false,
          "name": "price",
          "type": "uint256"
        },
        {
          "indexed": false,
          "name": "owner",
          "type": "address"
        }
      ],
      "name": "TokenCreated",
      "type": "event"
    },
    {
      "anonymous": false,
      "inputs": [
        {
          "indexed": true,
          "name": "tokenId",
          "type": "uint256"
        },
        {
          "indexed": false,
          "name": "name",
          "type": "string"
        },
        {
          "indexed": false,
          "name": "dna",
          "type": "bytes5"
        },
        {
          "indexed": false,
          "name": "sellingPrice",
          "type": "uint256"
        },
        {
          "indexed": false,
          "name": "newPrice",
          "type": "uint256"
        },
        {
          "indexed": true,
          "name": "oldOwner",
          "type": "address"
        },
        {
          "indexed": true,
          "name": "newOwner",
          "type": "address"
        }
      ],
      "name": "TokenSold",
      "type": "event"
    },
    {
      "anonymous": false,
      "inputs": [
        {
          "indexed": true,
          "name": "_from",
          "type": "address"
        },
        {
          "indexed": true,
          "name": "_to",
          "type": "address"
        },
        {
          "indexed": false,
          "name": "_tokenId",
          "type": "uint256"
        }
      ],
      "name": "Transfer",
      "type": "event"
    },
    {
      "anonymous": false,
      "inputs": [
        {
          "indexed": true,
          "name": "_owner",
          "type": "address"
        },
        {
          "indexed": true,
          "name": "_approved",
          "type": "address"
        },
        {
          "indexed": false,
          "name": "_tokenId",
          "type": "uint256"
        }
      ],
      "name": "Approval",
      "type": "event"
    },
    {
      "constant": true,
      "inputs": [],
      "name": "name",
      "outputs": [
        {
          "name": "_name",
          "type": "string"
        }
      ],
      "payable": false,
      "stateMutability": "view",
      "type": "function"
    },
    {
      "constant": true,
      "inputs": [],
      "name": "symbol",
      "outputs": [
        {
          "name": "_symbol",
          "type": "string"
        }
      ],
      "payable": false,
      "stateMutability": "view",
      "type": "function"
    }
  ],
  "bytecode": "0x60606040526000600160146101000a81548160ff021916908315150217905550662386f26fc100006007556000600860006101000a81548160ff02191690831515021790555066470de4df8200006009556706f05b59d3b20000600a55671bc16d674ec80000600b55674563918244f40000600c55336000806101000a81548173ffffffffffffffffffffffffffffffffffffffff021916908373ffffffffffffffffffffffffffffffffffffffff16021790555033600160006101000a81548173ffffffffffffffffffffffffffffffffffffffff021916908373ffffffffffffffffffffffffffffffffffffffff1602179055506126d8806101046000396000f30060606040526004361061015f576000357c0100000000000000000000000000000000000000000000000000000000900463ffffffff16806306fdde0314610164578063095ea7b3146101f25780630a0f8168146102345780630cf20cc9146102895780631051db34146102cb57806318160ddd146102f857806323b872dd1461032157806327d7874c146103825780632a5c792a146103bb5780632ba73c15146104b55780633f4ba83a146104ee57806345576f94146105035780635a3f2672146105605780635ba9e48e146105ee5780635c975abb146106255780636352211e1461065257806370a08231146106b557806371dc761e1461070257806373b4df05146107175780638456cb591461079c57806395d89b41146107b1578063a9059cbb1461083f578063b047fb5014610881578063b2e6ceeb146108d6578063b9186d7d146108f9578063e4b50cb814610930578063efef39a114610a50575b600080fd5b341561016f57600080fd5b610177610a68565b6040518080602001828103825283818151815260200191508051906020019080838360005b838110156101b757808201518184015260208101905061019c565b50505050905090810190601f1680156101e45780820380516001836020036101000a031916815260200191505b509250505060405180910390f35b34156101fd57600080fd5b610232600480803573ffffffffffffffffffffffffffffffffffffffff16906020019091908035906020019091905050610aab565b005b341561023f57600080fd5b610247610bb2565b604051808273ffffffffffffffffffffffffffffffffffffffff1673ffffffffffffffffffffffffffffffffffffffff16815260200191505060405180910390f35b341561029457600080fd5b6102c9600480803573ffffffffffffffffffffffffffffffffffffffff16906020019091908035906020019091905050610bd7565b005b34156102d657600080fd5b6102de610d5c565b604051808215151515815260200191505060405180910390f35b341561030357600080fd5b61030b610d8f565b6040518082815260200191505060405180910390f35b341561032c57600080fd5b610380600480803573ffffffffffffffffffffffffffffffffffffffff1690602001909190803573ffffffffffffffffffffffffffffffffffffffff16906020019091908035906020019091905050610d9c565b005b341561038d57600080fd5b6103b9600480803573ffffffffffffffffffffffffffffffffffffffff16906020019091905050610e49565b005b34156103c657600080fd5b6103ce610f23565b60405180806020018060200180602001848103845287818151815260200191508051906020019060200280838360005b838110156104195780820151818401526020810190506103fe565b50505050905001848103835286818151815260200191508051906020019060200280838360005b8381101561045b578082015181840152602081019050610440565b50505050905001848103825285818151815260200191508051906020019060200280838360005b8381101561049d578082015181840152602081019050610482565b50505050905001965050505050505060405180910390f35b34156104c057600080fd5b6104ec600480803573ffffffffffffffffffffffffffffffffffffffff169060200190919050506110c4565b005b34156104f957600080fd5b61050161119f565b005b341561050e57600080fd5b61055e600480803590602001908201803590602001908080601f01602080910402602001604051908101604052809392919081815260200183838082843782019150505050505091905050611232565b005b341561056b57600080fd5b610597600480803573ffffffffffffffffffffffffffffffffffffffff16906020019091905050611303565b6040518080602001828103825283818151815260200191508051906020019060200280838360005b838110156105da5780820151818401526020810190506105bf565b505050509050019250505060405180910390f35b34156105f957600080fd5b61060f6004808035906020019091905050611439565b6040518082815260200191505060405180910390f35b341561063057600080fd5b610638611557565b604051808215151515815260200191505060405180910390f35b341561065d57600080fd5b610673600480803590602001909190505061156a565b604051808273ffffffffffffffffffffffffffffffffffffffff1673ffffffffffffffffffffffffffffffffffffffff16815260200191505060405180910390f35b34156106c057600080fd5b6106ec600480803573ffffffffffffffffffffffffffffffffffffffff169060200190919050506115a7565b6040518082815260200191505060405180910390f35b341561070d57600080fd5b6107156115f0565b005b341561072257600080fd5b61079a600480803590602001908201803590602001908080601f0160208091040260200160405190810160405280939291908181526020018383808284378201915050505050509190803573ffffffffffffffffffffffffffffffffffffffff16906020019091908035906020019091905050611668565b005b34156107a757600080fd5b6107af611786565b005b34156107bc57600080fd5b6107c4611819565b6040518080602001828103825283818151815260200191508051906020019080838360005b838110156108045780820151818401526020810190506107e9565b50505050905090810190601f1680156108315780820380516001836020036101000a031916815260200191505b509250505060405180910390f35b341561084a57600080fd5b61087f600480803573ffffffffffffffffffffffffffffffffffffffff1690602001909190803590602001909190505061185c565b005b341561088c57600080fd5b6108946118f3565b604051808273ffffffffffffffffffffffffffffffffffffffff1673ffffffffffffffffffffffffffffffffffffffff16815260200191505060405180910390f35b34156108e157600080fd5b6108f76004808035906020019091905050611919565b005b341561090457600080fd5b61091a60048080359060200190919050506119a6565b6040518082815260200191505060405180910390f35b341561093b57600080fd5b61095160048080359060200190919050506119c3565b6040518080602001867affffffffffffffffffffffffffffffffffffffffffffffffffffff19167affffffffffffffffffffffffffffffffffffffffffffffffffffff191681526020018581526020018481526020018373ffffffffffffffffffffffffffffffffffffffff1673ffffffffffffffffffffffffffffffffffffffff168152602001828103825287818151815260200191508051906020019080838360005b83811015610a115780820151818401526020810190506109f6565b50505050905090810190601f168015610a3e5780820380516001836020036101000a031916815260200191505b50965050505050505060405180910390f35b610a666004808035906020019091905050611b37565b005b610a706124b8565b6040805190810160405280600d81526020017f43727970746f446f676769657300000000000000000000000000000000000000815250905090565b600160149054906101000a900460ff16151515610ac757600080fd5b600860009054906101000a900460ff161515610ae257600080fd5b610aec3382611f48565b1515610af757600080fd5b816005600083815260200190815260200160002060006101000a81548173ffffffffffffffffffffffffffffffffffffffff021916908373ffffffffffffffffffffffffffffffffffffffff1602179055508173ffffffffffffffffffffffffffffffffffffffff163373ffffffffffffffffffffffffffffffffffffffff167f8c5be1e5ebec7d5bd14f71427d1e84f3dd0314c0f7b2291e5b200ac8c7c3b925836040518082815260200191505060405180910390a35050565b6000809054906101000a900473ffffffffffffffffffffffffffffffffffffffff1681565b6000809054906101000a900473ffffffffffffffffffffffffffffffffffffffff1673ffffffffffffffffffffffffffffffffffffffff163373ffffffffffffffffffffffffffffffffffffffff16141515610c3257600080fd5b3073ffffffffffffffffffffffffffffffffffffffff16318111151515610c5857600080fd5b6000811415610c7c573073ffffffffffffffffffffffffffffffffffffffff163190505b600073ffffffffffffffffffffffffffffffffffffffff168273ffffffffffffffffffffffffffffffffffffffff161415610d17576000809054906101000a900473ffffffffffffffffffffffffffffffffffffffff1673ffffffffffffffffffffffffffffffffffffffff166108fc829081150290604051600060405180830381858888f193505050501515610d1257600080fd5b610d58565b8173ffffffffffffffffffffffffffffffffffffffff166108fc829081150290604051600060405180830381858888f193505050501515610d5757600080fd5b5b5050565b6000600160149054906101000a900460ff16151515610d7a57600080fd5b600860009054906101000a900460ff16905090565b6000600680549050905090565b600160149054906101000a900460ff16151515610db857600080fd5b600860009054906101000a900460ff161515610dd357600080fd5b600073ffffffffffffffffffffffffffffffffffffffff168273ffffffffffffffffffffffffffffffffffffffff1614151515610e0f57600080fd5b610e198382611f48565b1515610e2457600080fd5b610e2e3382611fb4565b1515610e3957600080fd5b610e44838383612020565b505050565b6000809054906101000a900473ffffffffffffffffffffffffffffffffffffffff1673ffffffffffffffffffffffffffffffffffffffff163373ffffffffffffffffffffffffffffffffffffffff16141515610ea457600080fd5b600073ffffffffffffffffffffffffffffffffffffffff168173ffffffffffffffffffffffffffffffffffffffff1614151515610ee057600080fd5b806000806101000a81548173ffffffffffffffffffffffffffffffffffffffff021916908373ffffffffffffffffffffffffffffffffffffffff16021790555050565b610f2b6124cc565b610f336124cc565b610f3b6124e0565b6000610f456124cc565b610f4d6124cc565b610f556124e0565b6000610f5f610d8f565b945084604051805910610f6f5750595b9080825280602002602001820160405250935084604051805910610f905750595b9080825280602002602001820160405250925084604051805910610fb15750595b90808252806020026020018201604052509150600090505b848110156110b15760036000828152602001908152602001600020548482815181101515610ff357fe5b906020019060200201818152505061100a81611439565b838281518110151561101857fe5b90602001906020020181815250506002600082815260200190815260200160002060009054906101000a900473ffffffffffffffffffffffffffffffffffffffff16828281518110151561106857fe5b9060200190602002019073ffffffffffffffffffffffffffffffffffffffff16908173ffffffffffffffffffffffffffffffffffffffff16815250508080600101915050610fc9565b8383839750975097505050505050909192565b6000809054906101000a900473ffffffffffffffffffffffffffffffffffffffff1673ffffffffffffffffffffffffffffffffffffffff163373ffffffffffffffffffffffffffffffffffffffff1614151561111f57600080fd5b600073ffffffffffffffffffffffffffffffffffffffff168173ffffffffffffffffffffffffffffffffffffffff161415151561115b57600080fd5b80600160006101000a81548173ffffffffffffffffffffffffffffffffffffffff021916908373ffffffffffffffffffffffffffffffffffffffff16021790555050565b6000809054906101000a900473ffffffffffffffffffffffffffffffffffffffff1673ffffffffffffffffffffffffffffffffffffffff163373ffffffffffffffffffffffffffffffffffffffff161415156111fa57600080fd5b600160149054906101000a900460ff16151561121557600080fd5b6000600160146101000a81548160ff021916908315150217905550565b60008060009054906101000a900473ffffffffffffffffffffffffffffffffffffffff1673ffffffffffffffffffffffffffffffffffffffff163373ffffffffffffffffffffffffffffffffffffffff1614806112dc5750600160009054906101000a900473ffffffffffffffffffffffffffffffffffffffff1673ffffffffffffffffffffffffffffffffffffffff163373ffffffffffffffffffffffffffffffffffffffff16145b15156112e757600080fd5b6112ef6121e8565b90506112ff828230600754612218565b5050565b61130b6124cc565b60006113156124cc565b6000806000611323876115a7565b9450600085141561135557600060405180591061133d5750595b9080825280602002602001820160405250955061142f565b846040518059106113635750595b9080825280602002602001820160405250935061137e610d8f565b925060009150600090505b8281101561142b578673ffffffffffffffffffffffffffffffffffffffff166002600083815260200190815260200160002060009054906101000a900473ffffffffffffffffffffffffffffffffffffffff1673ffffffffffffffffffffffffffffffffffffffff16141561141e5780848381518110151561140757fe5b906020019060200201818152505081806001019250505b8080600101915050611389565b8395505b5050505050919050565b600080611445836119a6565b905060095481101561147f57611478605f61146a60c88461243690919063ffffffff16565b61247190919063ffffffff16565b9150611551565b600a548110156114b7576114b060606114a260878461243690919063ffffffff16565b61247190919063ffffffff16565b9150611551565b600b548110156114ef576114e860616114da607d8461243690919063ffffffff16565b61247190919063ffffffff16565b9150611551565b600c5481101561152757611520606161151260758461243690919063ffffffff16565b61247190919063ffffffff16565b9150611551565b61154e606261154060738461243690919063ffffffff16565b61247190919063ffffffff16565b91505b50919050565b600160149054906101000a900460ff1681565b60006002600083815260200190815260200160002060009054906101000a900473ffffffffffffffffffffffffffffffffffffffff169050919050565b6000600460008373ffffffffffffffffffffffffffffffffffffffff1673ffffffffffffffffffffffffffffffffffffffff168152602001908152602001600020549050919050565b6000809054906101000a900473ffffffffffffffffffffffffffffffffffffffff1673ffffffffffffffffffffffffffffffffffffffff163373ffffffffffffffffffffffffffffffffffffffff1614151561164b57600080fd5b6001600860006101000a81548160ff021916908315150217905550565b60008060009054906101000a900473ffffffffffffffffffffffffffffffffffffffff1673ffffffffffffffffffffffffffffffffffffffff163373ffffffffffffffffffffffffffffffffffffffff1614806117125750600160009054906101000a900473ffffffffffffffffffffffffffffffffffffffff1673ffffffffffffffffffffffffffffffffffffffff163373ffffffffffffffffffffffffffffffffffffffff16145b151561171d57600080fd5b600073ffffffffffffffffffffffffffffffffffffffff168373ffffffffffffffffffffffffffffffffffffffff161415151561175957600080fd5b600754821015151561176a57600080fd5b6117726121e8565b905061178084828585612218565b50505050565b6000809054906101000a900473ffffffffffffffffffffffffffffffffffffffff1673ffffffffffffffffffffffffffffffffffffffff163373ffffffffffffffffffffffffffffffffffffffff161415156117e157600080fd5b600160149054906101000a900460ff161515156117fd57600080fd5b60018060146101000a81548160ff021916908315150217905550565b6118216124b8565b6040805190810160405280600381526020017f4344540000000000000000000000000000000000000000000000000000000000815250905090565b600160149054906101000a900460ff1615151561187857600080fd5b600860009054906101000a900460ff16151561189357600080fd5b600073ffffffffffffffffffffffffffffffffffffffff168273ffffffffffffffffffffffffffffffffffffffff16141515156118cf57600080fd5b6118d93382611f48565b15156118e457600080fd5b6118ef338383612020565b5050565b600160009054906101000a900473ffffffffffffffffffffffffffffffffffffffff1681565b600160149054906101000a900460ff1615151561193557600080fd5b600860009054906101000a900460ff16151561195057600080fd5b61195a3382611fb4565b151561196557600080fd5b6119a36002600083815260200190815260200160002060009054906101000a900473ffffffffffffffffffffffffffffffffffffffff163383612020565b50565b600060036000838152602001908152602001600020549050919050565b6119cb6124b8565b6000806000806006868154811015156119e057fe5b90600052602060002090600202016000018054600181600116156101000203166002900480601f016020809104026020016040519081016040528092919081815260200182805460018160011615610100020316600290048015611a855780601f10611a5a57610100808354040283529160200191611a85565b820191906000526020600020905b815481529060010190602001808311611a6857829003601f168201915b50505050509450600686815481101515611a9b57fe5b906000526020600020906002020160010160009054906101000a90047b0100000000000000000000000000000000000000000000000000000002935060036000878152602001908152602001600020549250611af686611439565b91506002600087815260200190815260200160002060009054906101000a900473ffffffffffffffffffffffffffffffffffffffff16905091939590929450565b6000806000806000600160149054906101000a900460ff16151515611b5b57600080fd5b611b648661156a565b9450339350611b72866119a6565b9250600073ffffffffffffffffffffffffffffffffffffffff168573ffffffffffffffffffffffffffffffffffffffff1614151515611bb057600080fd5b600073ffffffffffffffffffffffffffffffffffffffff168473ffffffffffffffffffffffffffffffffffffffff1614151515611bec57600080fd5b8373ffffffffffffffffffffffffffffffffffffffff168573ffffffffffffffffffffffffffffffffffffffff1614151515611c2757600080fd5b611c308461248c565b151515611c3c57600080fd5b600083111515611c4b57600080fd5b823410151515611c5a57600080fd5b611c65858588612020565b611c6e86611439565b60036000888152602001908152602001600020819055508373ffffffffffffffffffffffffffffffffffffffff168573ffffffffffffffffffffffffffffffffffffffff16877f47c2495ae9a226645e2cfa7b81ab70c2d82f35b0c69a72358812cca2f0f0bcbc60068a815481101515611ce457fe5b906000526020600020906002020160000160068b815481101515611d0457fe5b906000526020600020906002020160010160009054906101000a90047b010000000000000000000000000000000000000000000000000000000288611d488d6119a6565b6040518080602001857affffffffffffffffffffffffffffffffffffffffffffffffffffff19167affffffffffffffffffffffffffffffffffffffffffffffffffffff19168152602001848152602001838152602001828103825286818154600181600116156101000203166002900481526020019150805460018160011615610100020316600290048015611e1f5780601f10611df457610100808354040283529160200191611e1f565b820191906000526020600020905b815481529060010190602001808311611e0257829003601f168201915b50509550505050505060405180910390a4611e43833461249f90919063ffffffff16565b9150611e6c6064611e5e60068661243690919063ffffffff16565b61247190919063ffffffff16565b90503073ffffffffffffffffffffffffffffffffffffffff168573ffffffffffffffffffffffffffffffffffffffff16141515611ef6578473ffffffffffffffffffffffffffffffffffffffff166108fc611ed0838661249f90919063ffffffff16565b9081150290604051600060405180830381858888f193505050501515611ef557600080fd5b5b6000821115611f40578373ffffffffffffffffffffffffffffffffffffffff166108fc839081150290604051600060405180830381858888f193505050501515611f3f57600080fd5b5b505050505050565b60008273ffffffffffffffffffffffffffffffffffffffff166002600084815260200190815260200160002060009054906101000a900473ffffffffffffffffffffffffffffffffffffffff1673ffffffffffffffffffffffffffffffffffffffff1614905092915050565b60008273ffffffffffffffffffffffffffffffffffffffff166005600084815260200190815260200160002060009054906101000a900473ffffffffffffffffffffffffffffffffffffffff1673ffffffffffffffffffffffffffffffffffffffff1614905092915050565b600460008373ffffffffffffffffffffffffffffffffffffffff1673ffffffffffffffffffffffffffffffffffffffff16815260200190815260200160002060008154809291906001019190505550816002600083815260200190815260200160002060006101000a81548173ffffffffffffffffffffffffffffffffffffffff021916908373ffffffffffffffffffffffffffffffffffffffff160217905550600073ffffffffffffffffffffffffffffffffffffffff168373ffffffffffffffffffffffffffffffffffffffff1614151561217e57600460008473ffffffffffffffffffffffffffffffffffffffff1673ffffffffffffffffffffffffffffffffffffffff16815260200190815260200160002060008154809291906001900391905055506005600082815260200190815260200160002060006101000a81549073ffffffffffffffffffffffffffffffffffffffff02191690555b8173ffffffffffffffffffffffffffffffffffffffff168373ffffffffffffffffffffffffffffffffffffffff167fddf252ad1be2c89b69c2b068fc378daa952ba7f163c4a11628f55a4df523b3ef836040518082815260200191505060405180910390a3505050565b6000806000806001430392508240915060d863ffffffff6001028316600019169060020a02905080935050505090565b6122206124f4565b60006040805190810160405280878152602001867affffffffffffffffffffffffffffffffffffffffffffffffffffff1916815250915060016006805480600101828161226d9190612532565b91600052602060002090600202016000859091909150600082015181600001908051906020019061229f929190612564565b5060208201518160010160006101000a81548164ffffffffff02191690837b010000000000000000000000000000000000000000000000000000009004021790555050500390508260036000838152602001908152602001600020819055507fe2541836f6f02475fc0b01a06c1e80d7e5098215c6015348851ceabef9d05e6881878786886040518086815260200180602001857affffffffffffffffffffffffffffffffffffffffffffffffffffff19167affffffffffffffffffffffffffffffffffffffffffffffffffffff191681526020018481526020018373ffffffffffffffffffffffffffffffffffffffff1673ffffffffffffffffffffffffffffffffffffffff168152602001828103825286818151815260200191508051906020019080838360005b838110156123e45780820151818401526020810190506123c9565b50505050905090810190601f1680156124115780820380516001836020036101000a031916815260200191505b50965050505050505060405180910390a161242e60008583612020565b505050505050565b600080600084141561244b576000915061246a565b828402905082848281151561245c57fe5b0414151561246657fe5b8091505b5092915050565b600080828481151561247f57fe5b0490508091505092915050565b600080823b905060008111915050919050565b60008282111515156124ad57fe5b818303905092915050565b602060405190810160405280600081525090565b602060405190810160405280600081525090565b602060405190810160405280600081525090565b60408051908101604052806125076125e4565b815260200160007affffffffffffffffffffffffffffffffffffffffffffffffffffff191681525090565b81548183558181151161255f5760020281600202836000526020600020918201910161255e91906125f8565b5b505050565b828054600181600116156101000203166002900490600052602060002090601f016020900481019282601f106125a557805160ff19168380011785556125d3565b828001600101855582156125d3579182015b828111156125d25782518255916020019190600101906125b7565b5b5090506125e0919061263f565b5090565b602060405190810160405280600081525090565b61263c91905b8082111561263857600080820160006126179190612664565b6001820160006101000a81549064ffffffffff0219169055506002016125fe565b5090565b90565b61266191905b8082111561265d576000816000905550600101612645565b5090565b90565b50805460018160011615610100020316600290046000825580601f1061268a57506126a9565b601f0160209004906000526020600020908101906126a8919061263f565b5b505600a165627a7a72305820fe48416c888f1074cd67d532881d1342a91144efa2f059641bc3f58669b7ac860029",
  "source": "pragma solidity ^0.4.18;\r\n\r\nimport \"./AccessControl.sol\";\r\nimport \"./ERC721.sol\";\r\nimport \"./SafeMath.sol\";\r\n\r\ncontract DetailedERC721 is ERC721 {\r\n    function name() public view returns (string _name);\r\n    function symbol() public view returns (string _symbol);\r\n}\r\n\r\n\r\ncontract CryptoDoggies is AccessControl, DetailedERC721 {\r\n    using SafeMath for uint256;\r\n\r\n    //EVENTS\r\n    event TokenCreated(uint256 tokenId, string name, bytes5 dna, uint256 price, address owner);\r\n    event TokenSold(\r\n        uint256 indexed tokenId,\r\n        string name,\r\n        bytes5 dna,\r\n        uint256 sellingPrice,\r\n        uint256 newPrice,\r\n        address indexed oldOwner,\r\n        address indexed newOwner\r\n        );\r\n    //MAPPINGS\r\n    mapping (uint256 => address) private tokenIdToOwner;\r\n    mapping (uint256 => uint256) private tokenIdToPrice;\r\n    mapping (address => uint256) private ownershipTokenCount;\r\n    mapping (uint256 => address) private tokenIdToApproved;\r\n    //DOGGY STRUCT\r\n    struct Doggy {\r\n        string name;\r\n        bytes5 dna;\r\n    }\r\n    //ARRAY OF DOGS\r\n    Doggy[] private doggies;\r\n    //VARIABLES\r\n    uint256 private startingPrice = 0.01 ether;\r\n    bool private erc721Enabled = false;\r\n\r\n    modifier onlyERC721() {\r\n        require(erc721Enabled);\r\n        _;\r\n    }\r\n\r\n    //function allows us to specify price when creating a token, can give it immediately to account\r\n    function createToken(string _name, address _owner, uint256 _price) public onlyCLevel {\r\n        //require owner address is valid\r\n        require(_owner != address(0));\r\n        //require price we send in is greater than or equal to starting price\r\n        require(_price >= startingPrice);\r\n        //get DNA for dog\r\n        bytes5 _dna = _generateRandomDna();\r\n        //create the token using _createToken function\r\n        _createToken(_name, _dna, _owner, _price);\r\n    }\r\n    //just specify a name to create the token, price is default starting price\r\n    function createToken(string _name) public onlyCLevel {\r\n        bytes5 _dna = _generateRandomDna();\r\n        _createToken(_name, _dna, address(this), startingPrice);\r\n    }\r\n\r\n    function _generateRandomDna() private view returns (bytes5) {\r\n        //block number of blockchain\r\n        uint256 lastBlockNumber = block.number - 1;\r\n        //hash the block number\r\n        bytes32 hashVal = bytes32(block.blockhash(lastBlockNumber));\r\n        bytes5 dna = bytes5((hashVal & 0xffffffff) << 216);\r\n        return dna;\r\n    }\r\n\r\n    function _createToken(string _name, bytes5 _dna, address _owner, uint256 _price) private {\r\n        //create doggy in memory, set equal to Doggy struct\r\n        Doggy memory _doggy = Doggy({\r\n            name: _name,\r\n            dna: _dna\r\n        });\r\n        //add that doggy to the array\r\n        uint256 newTokenId = doggies.push(_doggy) - 1;\r\n        //map the tokenID to its price\r\n        tokenIdToPrice[newTokenId] = _price;\r\n        //event called\r\n        TokenCreated(newTokenId, _name, _dna, _price, _owner);\r\n        //transfer the ownership of newTokenId to the new owner\r\n        _transfer(address(0), _owner, newTokenId);\r\n    }\r\n\r\n    function getToken(uint256 _tokenId) public view returns (\r\n        string _tokenName,\r\n        bytes5 _dna,\r\n        uint256 _price,\r\n        uint256 _nextPrice,\r\n        address _owner\r\n    ) {\r\n        //get tokenName from the doggies array\r\n        _tokenName = doggies[_tokenId].name;\r\n        //get doggy dna from the doggies array\r\n        _dna = doggies[_tokenId].dna;\r\n        //get price from the mapping\r\n        _price = tokenIdToPrice[_tokenId];\r\n        //get next price from nextPriceOf function\r\n        _nextPrice = nextPriceOf(_tokenId);\r\n        //get owner of token from mapping\r\n        _owner = tokenIdToOwner[_tokenId];\r\n    }\r\n\r\n    function getAllTokens() public view returns (\r\n        uint256[],\r\n        uint256[],\r\n        address[]\r\n    ) {\r\n        //call totalSuppy() funciton\r\n        uint256 total = totalSupply();\r\n        //create arrays in memory of size total for the prices, nextPrices, and owners\r\n        uint256[] memory prices = new uint256[](total);\r\n        uint256[] memory nextPrices = new uint256[](total);\r\n        address[] memory owners = new address[](total);\r\n        //iterate through arrays from 0 to total-1\r\n        for (uint256 i = 0; i < total; i++) {\r\n            prices[i] = tokenIdToPrice[i];\r\n            nextPrices[i] = nextPriceOf(i);\r\n            owners[i] = tokenIdToOwner[i];\r\n        }\r\n\r\n        return (prices, nextPrices, owners);\r\n    }\r\n    //returns a list of tokens that owner owns\r\n    function tokensOf(address _owner) public view returns(uint256[]) {\r\n        //get the balance of the owner\r\n        uint256 tokenCount = balanceOf(_owner);\r\n        if (tokenCount == 0) { //if zero we can return an empty array\r\n            return new uint256[](0);\r\n        } else {\r\n            //array in memory of size of token count\r\n            uint256[] memory result = new uint256[](tokenCount);\r\n            uint256 total = totalSupply();\r\n            uint256 resultIndex = 0;\r\n            //go through all tokens, check if tokenIdToOwner mapping for each token is owner\r\n            for (uint256 i = 0; i < total; i++) {\r\n                if (tokenIdToOwner[i] == _owner) {\r\n                    result[resultIndex] = i;\r\n                    resultIndex++;\r\n                }\r\n            }\r\n            return result;\r\n        }\r\n    }\r\n    //contract will have value, we can send that value to an address\r\n    function withdrawBalance(address _to, uint256 _amount) public onlyCEO {\r\n        require(_amount <= this.balance);\r\n\r\n        if (_amount == 0) {\r\n            _amount = this.balance;\r\n        }\r\n\r\n        if (_to == address(0)) {\r\n            ceoAddress.transfer(_amount);\r\n        } else {\r\n            _to.transfer(_amount);\r\n        }\r\n    }\r\n\r\n    function purchase(uint256 _tokenId) public payable whenNotPaused {\r\n        //oldOwner is the current owner of the tokenID\r\n        address oldOwner = ownerOf(_tokenId);\r\n        //newOwner is the person initiating transaction, calling function\r\n        address newOwner = msg.sender;\r\n        //selling price is the price of the tokenID\r\n        uint256 sellingPrice = priceOf(_tokenId);\r\n        //require old owner and new owner addresses are valid\r\n        require(oldOwner != address(0));\r\n        require(newOwner != address(0));\r\n        //require old owner is not new owner\r\n        require(oldOwner != newOwner);\r\n        //require new owner is not contract, the contract should not own any tokens\r\n        require(!_isContract(newOwner));\r\n        //selling price checks\r\n        require(sellingPrice > 0);\r\n        require(msg.value >= sellingPrice);\r\n        //call transfer function\r\n        _transfer(oldOwner, newOwner, _tokenId);\r\n        tokenIdToPrice[_tokenId] = nextPriceOf(_tokenId);\r\n        //event\r\n        TokenSold(\r\n            _tokenId,\r\n            doggies[_tokenId].name,\r\n            doggies[_tokenId].dna,\r\n            sellingPrice,\r\n            priceOf(_tokenId),\r\n            oldOwner,\r\n            newOwner\r\n        );\r\n        //if they send too much ether\r\n        uint256 excess = msg.value.sub(sellingPrice);\r\n        uint256 contractCut = sellingPrice.mul(6).div(100); // 6% cut\r\n\r\n        if (oldOwner != address(this)) {\r\n            oldOwner.transfer(sellingPrice.sub(contractCut));\r\n        }\r\n        //return extra ether back to newOwner\r\n        if (excess > 0) {\r\n            newOwner.transfer(excess);\r\n        }\r\n    }\r\n\r\n    function priceOf(uint256 _tokenId) public view returns (uint256 _price) {\r\n        return tokenIdToPrice[_tokenId];\r\n    }\r\n\r\n    uint256 private increaseLimit1 = 0.02 ether;\r\n    uint256 private increaseLimit2 = 0.5 ether;\r\n    uint256 private increaseLimit3 = 2.0 ether;\r\n    uint256 private increaseLimit4 = 5.0 ether;\r\n    //after each purchase, increase price of dog, gives new owner opportunity to profit\r\n    function nextPriceOf(uint256 _tokenId) public view returns (uint256 _nextPrice) {\r\n        uint256 _price = priceOf(_tokenId);\r\n        if (_price < increaseLimit1) {\r\n            return _price.mul(200).div(95);\r\n        } else if (_price < increaseLimit2) {\r\n            return _price.mul(135).div(96);\r\n        } else if (_price < increaseLimit3) {\r\n            return _price.mul(125).div(97);\r\n        } else if (_price < increaseLimit4) {\r\n            return _price.mul(117).div(97);\r\n        } else {\r\n            return _price.mul(115).div(98);\r\n        }\r\n    }\r\n\r\n    function enableERC721() public onlyCEO {\r\n        erc721Enabled = true;\r\n    }\r\n\r\n    function totalSupply() public view returns (uint256 _totalSupply) {\r\n        _totalSupply = doggies.length;\r\n    }\r\n\r\n    function balanceOf(address _owner) public view returns (uint256 _balance) {\r\n        _balance = ownershipTokenCount[_owner];\r\n    }\r\n\r\n    function ownerOf(uint256 _tokenId) public view returns (address _owner) {\r\n        _owner = tokenIdToOwner[_tokenId];\r\n    }\r\n\r\n    function approve(address _to, uint256 _tokenId) public whenNotPaused onlyERC721 {\r\n        //require that the sender owns the token\r\n        require(_owns(msg.sender, _tokenId));\r\n        tokenIdToApproved[_tokenId] = _to;\r\n        Approval(msg.sender, _to, _tokenId);\r\n    }\r\n\r\n    function transferFrom(address _from, address _to, uint256 _tokenId) public whenNotPaused onlyERC721 {\r\n        //require to address is valid\r\n        require(_to != address(0));\r\n        //require from account owns the token\r\n        require(_owns(_from, _tokenId));\r\n        //require that approved is correct\r\n        require(_approved(msg.sender, _tokenId));\r\n        //perform transfer\r\n        _transfer(_from, _to, _tokenId);\r\n    }\r\n\r\n    function transfer(address _to, uint256 _tokenId) public whenNotPaused onlyERC721 {\r\n        //require to address is valid\r\n        require(_to != address(0));\r\n        //require that sender owns the token\r\n        require(_owns(msg.sender, _tokenId));\r\n        //transfet the token\r\n        _transfer(msg.sender, _to, _tokenId);\r\n    }\r\n\r\n    function implementsERC721() public view whenNotPaused returns (bool) {\r\n        return erc721Enabled;\r\n    }\r\n\r\n    function takeOwnership(uint256 _tokenId) public whenNotPaused onlyERC721 {\r\n        //requires that the sender is approved\r\n        require(_approved(msg.sender, _tokenId));\r\n        _transfer(tokenIdToOwner[_tokenId], msg.sender, _tokenId);\r\n    }\r\n\r\n    function name() public view returns (string _name) {\r\n        _name = \"CryptoDoggies\";\r\n    }\r\n\r\n    function symbol() public view returns (string _symbol) {\r\n        _symbol = \"CDT\";\r\n    }\r\n    //checks that token of _tokenId is owned by _claimant\r\n    function _owns(address _claimant, uint256 _tokenId) private view returns (bool) {\r\n        return tokenIdToOwner[_tokenId] == _claimant;\r\n    }\r\n    //checks if token is approved for address _to\r\n    function _approved(address _to, uint256 _tokenId) private view returns (bool) {\r\n        return tokenIdToApproved[_tokenId] == _to;\r\n    }\r\n    //transfers ownership of token to another address\r\n    function _transfer(address _from, address _to, uint256 _tokenId) private {\r\n        //increment ownershipTokenCount of _to by 1\r\n        ownershipTokenCount[_to]++;\r\n        tokenIdToOwner[_tokenId] = _to;\r\n        //if _from address is correct\r\n        if (_from != address(0)) {\r\n            //decrement ownershipTokenCount by 1\r\n            ownershipTokenCount[_from]--;\r\n            //delete approval\r\n            delete tokenIdToApproved[_tokenId];\r\n        }\r\n        //emit transfer event\r\n        Transfer(_from, _to, _tokenId);\r\n    }\r\n    //check to see if address is a contract or not\r\n    function _isContract(address addr) private view returns (bool) {\r\n        uint256 size;\r\n        //if size is greater that zero than address is a contract \r\n        assembly { size := extcodesize(addr) }\r\n        return size > 0;\r\n    }\r\n}\r\n",
  "sourcePath": "C:\\Users\\rpete\\ChainSkills\\Git\\cryptodoggies\\contracts\\CryptoDoggies.sol",
  "compiler": {
    "name": "solc",
    "version": "0.4.19+commit.c4cbbb05.Emscripten.clang"
  },
  "schemaVersion": "2.0.0",
  "updatedAt": "2019-08-14T17:19:26.274Z"
}